{
  "_format": "hh-sol-artifact-1",
  "contractName": "ToonSurvival",
  "sourceName": "contracts/ToonSurvival.sol",
  "abi": [
    {
      "inputs": [
        {
          "internalType": "string",
          "name": "_tokenName",
          "type": "string"
        },
        {
          "internalType": "string",
          "name": "_tokenSymbol",
          "type": "string"
        },
        {
          "internalType": "uint256",
          "name": "_cost",
          "type": "uint256"
        },
        {
          "internalType": "uint256",
          "name": "_maxSupply",
          "type": "uint256"
        },
        {
          "internalType": "uint256",
          "name": "_maxMintAmount",
          "type": "uint256"
        },
        {
          "internalType": "uint256",
          "name": "_maxMintAmountPerTx",
          "type": "uint256"
        },
        {
          "internalType": "string",
          "name": "_initBaseURI",
          "type": "string"
        },
        {
          "internalType": "string",
          "name": "_initHiddenBaseURI",
          "type": "string"
        }
      ],
      "stateMutability": "nonpayable",
      "type": "constructor"
    },
    {
      "inputs": [],
      "name": "ApprovalCallerNotOwnerNorApproved",
      "type": "error"
    },
    {
      "inputs": [],
      "name": "ApprovalQueryForNonexistentToken",
      "type": "error"
    },
    {
      "inputs": [],
      "name": "ApprovalToCurrentOwner",
      "type": "error"
    },
    {
      "inputs": [],
      "name": "ApproveToCaller",
      "type": "error"
    },
    {
      "inputs": [],
      "name": "BalanceQueryForZeroAddress",
      "type": "error"
    },
    {
      "inputs": [],
      "name": "MintToZeroAddress",
      "type": "error"
    },
    {
      "inputs": [],
      "name": "MintZeroQuantity",
      "type": "error"
    },
    {
      "inputs": [],
      "name": "OwnerQueryForNonexistentToken",
      "type": "error"
    },
    {
      "inputs": [],
      "name": "TransferCallerNotOwnerNorApproved",
      "type": "error"
    },
    {
      "inputs": [],
      "name": "TransferFromIncorrectOwner",
      "type": "error"
    },
    {
      "inputs": [],
      "name": "TransferToNonERC721ReceiverImplementer",
      "type": "error"
    },
    {
      "inputs": [],
      "name": "TransferToZeroAddress",
      "type": "error"
    },
    {
      "anonymous": false,
      "inputs": [
        {
          "indexed": true,
          "internalType": "address",
          "name": "owner",
          "type": "address"
        },
        {
          "indexed": true,
          "internalType": "address",
          "name": "approved",
          "type": "address"
        },
        {
          "indexed": true,
          "internalType": "uint256",
          "name": "tokenId",
          "type": "uint256"
        }
      ],
      "name": "Approval",
      "type": "event"
    },
    {
      "anonymous": false,
      "inputs": [
        {
          "indexed": true,
          "internalType": "address",
          "name": "owner",
          "type": "address"
        },
        {
          "indexed": true,
          "internalType": "address",
          "name": "operator",
          "type": "address"
        },
        {
          "indexed": false,
          "internalType": "bool",
          "name": "approved",
          "type": "bool"
        }
      ],
      "name": "ApprovalForAll",
      "type": "event"
    },
    {
      "anonymous": false,
      "inputs": [
        {
          "indexed": true,
          "internalType": "address",
          "name": "previousOwner",
          "type": "address"
        },
        {
          "indexed": true,
          "internalType": "address",
          "name": "newOwner",
          "type": "address"
        }
      ],
      "name": "OwnershipTransferred",
      "type": "event"
    },
    {
      "anonymous": false,
      "inputs": [
        {
          "indexed": true,
          "internalType": "address",
          "name": "from",
          "type": "address"
        },
        {
          "indexed": true,
          "internalType": "address",
          "name": "to",
          "type": "address"
        },
        {
          "indexed": true,
          "internalType": "uint256",
          "name": "tokenId",
          "type": "uint256"
        }
      ],
      "name": "Transfer",
      "type": "event"
    },
    {
      "inputs": [
        {
          "internalType": "address",
          "name": "to",
          "type": "address"
        },
        {
          "internalType": "uint256",
          "name": "tokenId",
          "type": "uint256"
        }
      ],
      "name": "approve",
      "outputs": [],
      "stateMutability": "nonpayable",
      "type": "function"
    },
    {
      "inputs": [],
      "name": "auctionDropInterval",
      "outputs": [
        {
          "internalType": "uint256",
          "name": "",
          "type": "uint256"
        }
      ],
      "stateMutability": "view",
      "type": "function"
    },
    {
      "inputs": [],
      "name": "auctionDropPerStep",
      "outputs": [
        {
          "internalType": "uint256",
          "name": "",
          "type": "uint256"
        }
      ],
      "stateMutability": "view",
      "type": "function"
    },
    {
      "inputs": [],
      "name": "auctionEndPrice",
      "outputs": [
        {
          "internalType": "uint256",
          "name": "",
          "type": "uint256"
        }
      ],
      "stateMutability": "view",
      "type": "function"
    },
    {
      "inputs": [],
      "name": "auctionStartPrice",
      "outputs": [
        {
          "internalType": "uint256",
          "name": "",
          "type": "uint256"
        }
      ],
      "stateMutability": "view",
      "type": "function"
    },
    {
      "inputs": [],
      "name": "auctionTimeLength",
      "outputs": [
        {
          "internalType": "uint256",
          "name": "",
          "type": "uint256"
        }
      ],
      "stateMutability": "view",
      "type": "function"
    },
    {
      "inputs": [
        {
          "internalType": "address",
          "name": "owner",
          "type": "address"
        }
      ],
      "name": "balanceOf",
      "outputs": [
        {
          "internalType": "uint256",
          "name": "",
          "type": "uint256"
        }
      ],
      "stateMutability": "view",
      "type": "function"
    },
    {
      "inputs": [],
      "name": "cost",
      "outputs": [
        {
          "internalType": "uint256",
          "name": "",
          "type": "uint256"
        }
      ],
      "stateMutability": "view",
      "type": "function"
    },
    {
      "inputs": [
        {
          "internalType": "uint256",
          "name": "_mintAmount",
          "type": "uint256"
        }
      ],
      "name": "dutchAuctionMint",
      "outputs": [],
      "stateMutability": "payable",
      "type": "function"
    },
    {
      "inputs": [],
      "name": "dutchAuctionPrice",
      "outputs": [
        {
          "internalType": "uint256",
          "name": "",
          "type": "uint256"
        }
      ],
      "stateMutability": "view",
      "type": "function"
    },
    {
      "inputs": [],
      "name": "dutchAuctionStartTime",
      "outputs": [
        {
          "internalType": "uint256",
          "name": "",
          "type": "uint256"
        }
      ],
      "stateMutability": "view",
      "type": "function"
    },
    {
      "inputs": [
        {
          "internalType": "uint256",
          "name": "tokenId",
          "type": "uint256"
        }
      ],
      "name": "getApproved",
      "outputs": [
        {
          "internalType": "address",
          "name": "",
          "type": "address"
        }
      ],
      "stateMutability": "view",
      "type": "function"
    },
    {
      "inputs": [],
      "name": "hiddenBaseURI",
      "outputs": [
        {
          "internalType": "string",
          "name": "",
          "type": "string"
        }
      ],
      "stateMutability": "view",
      "type": "function"
    },
    {
      "inputs": [
        {
          "internalType": "address",
          "name": "owner",
          "type": "address"
        },
        {
          "internalType": "address",
          "name": "operator",
          "type": "address"
        }
      ],
      "name": "isApprovedForAll",
      "outputs": [
        {
          "internalType": "bool",
          "name": "",
          "type": "bool"
        }
      ],
      "stateMutability": "view",
      "type": "function"
    },
    {
      "inputs": [],
      "name": "maxMintAmount",
      "outputs": [
        {
          "internalType": "uint256",
          "name": "",
          "type": "uint256"
        }
      ],
      "stateMutability": "view",
      "type": "function"
    },
    {
      "inputs": [],
      "name": "maxMintAmountPerTx",
      "outputs": [
        {
          "internalType": "uint256",
          "name": "",
          "type": "uint256"
        }
      ],
      "stateMutability": "view",
      "type": "function"
    },
    {
      "inputs": [],
      "name": "maxSupply",
      "outputs": [
        {
          "internalType": "uint256",
          "name": "",
          "type": "uint256"
        }
      ],
      "stateMutability": "view",
      "type": "function"
    },
    {
      "inputs": [],
      "name": "maxWhitelistMintAmount",
      "outputs": [
        {
          "internalType": "uint256",
          "name": "",
          "type": "uint256"
        }
      ],
      "stateMutability": "view",
      "type": "function"
    },
    {
      "inputs": [],
      "name": "merkleRoot",
      "outputs": [
        {
          "internalType": "bytes32",
          "name": "",
          "type": "bytes32"
        }
      ],
      "stateMutability": "view",
      "type": "function"
    },
    {
      "inputs": [
        {
          "internalType": "uint256",
          "name": "_mintAmount",
          "type": "uint256"
        }
      ],
      "name": "mint",
      "outputs": [],
      "stateMutability": "payable",
      "type": "function"
    },
    {
      "inputs": [
        {
          "internalType": "uint256",
          "name": "_mintAmount",
          "type": "uint256"
        },
        {
          "internalType": "address",
          "name": "_receiver",
          "type": "address"
        }
      ],
      "name": "mintForAddress",
      "outputs": [],
      "stateMutability": "nonpayable",
      "type": "function"
    },
    {
      "inputs": [],
      "name": "name",
      "outputs": [
        {
          "internalType": "string",
          "name": "",
          "type": "string"
        }
      ],
      "stateMutability": "view",
      "type": "function"
    },
    {
      "inputs": [],
      "name": "owner",
      "outputs": [
        {
          "internalType": "address",
          "name": "",
          "type": "address"
        }
      ],
      "stateMutability": "view",
      "type": "function"
    },
    {
      "inputs": [
        {
          "internalType": "uint256",
          "name": "tokenId",
          "type": "uint256"
        }
      ],
      "name": "ownerOf",
      "outputs": [
        {
          "internalType": "address",
          "name": "",
          "type": "address"
        }
      ],
      "stateMutability": "view",
      "type": "function"
    },
    {
      "inputs": [],
      "name": "renounceOwnership",
      "outputs": [],
      "stateMutability": "nonpayable",
      "type": "function"
    },
    {
      "inputs": [],
      "name": "revealed",
      "outputs": [
        {
          "internalType": "bool",
          "name": "",
          "type": "bool"
        }
      ],
      "stateMutability": "view",
      "type": "function"
    },
    {
      "inputs": [
        {
          "internalType": "address",
          "name": "from",
          "type": "address"
        },
        {
          "internalType": "address",
          "name": "to",
          "type": "address"
        },
        {
          "internalType": "uint256",
          "name": "tokenId",
          "type": "uint256"
        }
      ],
      "name": "safeTransferFrom",
      "outputs": [],
      "stateMutability": "nonpayable",
      "type": "function"
    },
    {
      "inputs": [
        {
          "internalType": "address",
          "name": "from",
          "type": "address"
        },
        {
          "internalType": "address",
          "name": "to",
          "type": "address"
        },
        {
          "internalType": "uint256",
          "name": "tokenId",
          "type": "uint256"
        },
        {
          "internalType": "bytes",
          "name": "_data",
          "type": "bytes"
        }
      ],
      "name": "safeTransferFrom",
      "outputs": [],
      "stateMutability": "nonpayable",
      "type": "function"
    },
    {
      "inputs": [
        {
          "internalType": "address",
          "name": "operator",
          "type": "address"
        },
        {
          "internalType": "bool",
          "name": "approved",
          "type": "bool"
        }
      ],
      "name": "setApprovalForAll",
      "outputs": [],
      "stateMutability": "nonpayable",
      "type": "function"
    },
    {
      "inputs": [
        {
          "internalType": "string",
          "name": "_newBaseURI",
          "type": "string"
        }
      ],
      "name": "setBaseURI",
      "outputs": [],
      "stateMutability": "nonpayable",
      "type": "function"
    },
    {
      "inputs": [
        {
          "internalType": "uint256",
          "name": "_cost",
          "type": "uint256"
        }
      ],
      "name": "setCost",
      "outputs": [],
      "stateMutability": "nonpayable",
      "type": "function"
    },
    {
      "inputs": [
        {
          "internalType": "uint256",
          "name": "startTime",
          "type": "uint256"
        }
      ],
      "name": "setDutchAuctionStartTime",
      "outputs": [],
      "stateMutability": "nonpayable",
      "type": "function"
    },
    {
      "inputs": [
        {
          "internalType": "string",
          "name": "_newHiddenBaseURI",
          "type": "string"
        }
      ],
      "name": "setHiddenBaseURI",
      "outputs": [],
      "stateMutability": "nonpayable",
      "type": "function"
    },
    {
      "inputs": [
        {
          "internalType": "uint256",
          "name": "_maxMintAmount",
          "type": "uint256"
        }
      ],
      "name": "setMaxMintAmount",
      "outputs": [],
      "stateMutability": "nonpayable",
      "type": "function"
    },
    {
      "inputs": [
        {
          "internalType": "uint256",
          "name": "_maxMintAmountPerTx",
          "type": "uint256"
        }
      ],
      "name": "setMaxMintAmountPerTx",
      "outputs": [],
      "stateMutability": "nonpayable",
      "type": "function"
    },
    {
      "inputs": [
        {
          "internalType": "uint256",
          "name": "_maxWhitelistMintAmount",
          "type": "uint256"
        }
      ],
      "name": "setMaxWhitelistMintAmount",
      "outputs": [],
      "stateMutability": "nonpayable",
      "type": "function"
    },
    {
      "inputs": [
        {
          "internalType": "bytes32",
          "name": "_merkleRoot",
          "type": "bytes32"
        }
      ],
      "name": "setMerkleRoot",
      "outputs": [],
      "stateMutability": "nonpayable",
      "type": "function"
    },
    {
      "inputs": [
        {
          "internalType": "bool",
          "name": "_revealed",
          "type": "bool"
        }
      ],
      "name": "setRevealed",
      "outputs": [],
      "stateMutability": "nonpayable",
      "type": "function"
    },
    {
      "inputs": [
        {
          "internalType": "enum ToonSurvival.Stages",
          "name": "_stage",
          "type": "uint8"
        }
      ],
      "name": "setStage",
      "outputs": [],
      "stateMutability": "nonpayable",
      "type": "function"
    },
    {
      "inputs": [],
      "name": "stage",
      "outputs": [
        {
          "internalType": "enum ToonSurvival.Stages",
          "name": "",
          "type": "uint8"
        }
      ],
      "stateMutability": "view",
      "type": "function"
    },
    {
      "inputs": [
        {
          "internalType": "bytes4",
          "name": "interfaceId",
          "type": "bytes4"
        }
      ],
      "name": "supportsInterface",
      "outputs": [
        {
          "internalType": "bool",
          "name": "",
          "type": "bool"
        }
      ],
      "stateMutability": "view",
      "type": "function"
    },
    {
      "inputs": [],
      "name": "symbol",
      "outputs": [
        {
          "internalType": "string",
          "name": "",
          "type": "string"
        }
      ],
      "stateMutability": "view",
      "type": "function"
    },
    {
      "inputs": [
        {
          "internalType": "uint256",
          "name": "tokenId",
          "type": "uint256"
        }
      ],
      "name": "tokenURI",
      "outputs": [
        {
          "internalType": "string",
          "name": "",
          "type": "string"
        }
      ],
      "stateMutability": "view",
      "type": "function"
    },
    {
      "inputs": [],
      "name": "totalSupply",
      "outputs": [
        {
          "internalType": "uint256",
          "name": "",
          "type": "uint256"
        }
      ],
      "stateMutability": "view",
      "type": "function"
    },
    {
      "inputs": [
        {
          "internalType": "address",
          "name": "from",
          "type": "address"
        },
        {
          "internalType": "address",
          "name": "to",
          "type": "address"
        },
        {
          "internalType": "uint256",
          "name": "tokenId",
          "type": "uint256"
        }
      ],
      "name": "transferFrom",
      "outputs": [],
      "stateMutability": "nonpayable",
      "type": "function"
    },
    {
      "inputs": [
        {
          "internalType": "address",
          "name": "newOwner",
          "type": "address"
        }
      ],
      "name": "transferOwnership",
      "outputs": [],
      "stateMutability": "nonpayable",
      "type": "function"
    },
    {
      "inputs": [
        {
          "internalType": "address",
          "name": "_owner",
          "type": "address"
        }
      ],
      "name": "walletOfOwner",
      "outputs": [
        {
          "internalType": "uint256[]",
          "name": "",
          "type": "uint256[]"
        }
      ],
      "stateMutability": "view",
      "type": "function"
    },
    {
      "inputs": [
        {
          "internalType": "address",
          "name": "",
          "type": "address"
        }
      ],
      "name": "whitelistClaimed",
      "outputs": [
        {
          "internalType": "uint256",
          "name": "",
          "type": "uint256"
        }
      ],
      "stateMutability": "view",
      "type": "function"
    },
    {
      "inputs": [
        {
          "internalType": "uint256",
          "name": "_mintAmount",
          "type": "uint256"
        },
        {
          "internalType": "bytes32[]",
          "name": "_merkleProof",
          "type": "bytes32[]"
        }
      ],
      "name": "whitelistMint",
      "outputs": [],
      "stateMutability": "payable",
      "type": "function"
    },
    {
      "inputs": [],
      "name": "withdraw",
      "outputs": [],
      "stateMutability": "payable",
      "type": "function"
    }
  ],
  "bytecode": "0x60806040526010805461ffff1916905560016012553480156200002157600080fd5b5060405162002e7538038062002e7583398101604081905262000044916200029e565b8751889088906200005d9060029060208501906200012b565b508051620000739060039060208401906200012b565b50506001600055506200008633620000d9565b6001600955600c869055600d859055600e849055600f8390558151620000b490600a9060208501906200012b565b508051620000ca90600b9060208401906200012b565b505050505050505050620003bb565b600880546001600160a01b038381166001600160a01b0319831681179093556040519116919082907f8be0079c531659141344cd1fd0a4f28419497f9722a3daafe3b4186f6b6457e090600090a35050565b82805462000139906200037e565b90600052602060002090601f0160209004810192826200015d5760008555620001a8565b82601f106200017857805160ff1916838001178555620001a8565b82800160010185558215620001a8579182015b82811115620001a85782518255916020019190600101906200018b565b50620001b6929150620001ba565b5090565b5b80821115620001b65760008155600101620001bb565b634e487b7160e01b600052604160045260246000fd5b600082601f830112620001f957600080fd5b81516001600160401b0380821115620002165762000216620001d1565b604051601f8301601f19908116603f01168101908282118183101715620002415762000241620001d1565b816040528381526020925086838588010111156200025e57600080fd5b600091505b8382101562000282578582018301518183018401529082019062000263565b83821115620002945760008385830101525b9695505050505050565b600080600080600080600080610100898b031215620002bc57600080fd5b88516001600160401b0380821115620002d457600080fd5b620002e28c838d01620001e7565b995060208b0151915080821115620002f957600080fd5b620003078c838d01620001e7565b985060408b0151975060608b0151965060808b0151955060a08b0151945060c08b01519150808211156200033a57600080fd5b620003488c838d01620001e7565b935060e08b01519150808211156200035f57600080fd5b506200036e8b828c01620001e7565b9150509295985092959890939650565b600181811c908216806200039357607f821691505b60208210811415620003b557634e487b7160e01b600052602260045260246000fd5b50919050565b612aaa80620003cb6000396000f3fe6080604052600436106102c95760003560e01c806394354fd011610175578063d2cab056116100dc578063e985e9c511610095578063f2fde38b1161006f578063f2fde38b14610852578063f8cce6c014610872578063f96407fa14610885578063fb42f45d1461089b57600080fd5b8063e985e9c5146107d3578063efbd73f41461081c578063f243669b1461083c57600080fd5b8063d2cab0561461072c578063d5abeb011461073f578063d756985b14610755578063db4bec4414610771578063e0a808531461079e578063e6fe34b3146107be57600080fd5b8063b071401b1161012e578063b071401b1461066a578063b88d4fde1461068a578063c040e6b8146106aa578063c3fb29af146106d6578063c87b56dd146106ec578063ce3cd9971461070c57600080fd5b806394354fd0146105db57806395d89b41146105f1578063a04a6ac814610606578063a0712d6814610622578063a22cb46514610635578063a537f74d1461065557600080fd5b80632eb4a7ab1161023457806355f804b3116101ed578063715018a6116101c7578063715018a6146105735780637cb64759146105885780638128f9ff146105a85780638da5cb5b146105bd57600080fd5b806355f804b3146105135780636352211e1461053357806370a082311461055357600080fd5b80632eb4a7ab1461046e5780633ccfd60b1461048457806342842e0e1461048c578063438b6300146104ac57806344a0d68a146104d957806351830227146104f957600080fd5b806313faede61161028657806313faede6146103bf57806318160ddd146103e357806319c8b85f146103f857806320ac685014610418578063239c70ae1461043857806323b872dd1461044e57600080fd5b806301ffc9a7146102ce57806306fdde0314610303578063081812fc14610325578063088a4ed01461035d578063095ea7b31461037f578063128e886c1461039f575b600080fd5b3480156102da57600080fd5b506102ee6102e93660046123bd565b6108b1565b60405190151581526020015b60405180910390f35b34801561030f57600080fd5b50610318610903565b6040516102fa9190612432565b34801561033157600080fd5b50610345610340366004612445565b610995565b6040516001600160a01b0390911681526020016102fa565b34801561036957600080fd5b5061037d610378366004612445565b6109d9565b005b34801561038b57600080fd5b5061037d61039a36600461247a565b610a11565b3480156103ab57600080fd5b5061037d6103ba366004612445565b610a9f565b3480156103cb57600080fd5b506103d5600c5481565b6040519081526020016102fa565b3480156103ef57600080fd5b506103d5610ace565b34801561040457600080fd5b5061037d610413366004612445565b610adc565b34801561042457600080fd5b5061037d61043336600461252f565b610b0b565b34801561044457600080fd5b506103d5600e5481565b34801561045a57600080fd5b5061037d610469366004612577565b610b4c565b34801561047a57600080fd5b506103d560115481565b61037d610b57565b34801561049857600080fd5b5061037d6104a7366004612577565b610c36565b3480156104b857600080fd5b506104cc6104c73660046125b3565b610c51565b6040516102fa91906125ce565b3480156104e557600080fd5b5061037d6104f4366004612445565b610d83565b34801561050557600080fd5b506010546102ee9060ff1681565b34801561051f57600080fd5b5061037d61052e36600461252f565b610db2565b34801561053f57600080fd5b5061034561054e366004612445565b610def565b34801561055f57600080fd5b506103d561056e3660046125b3565b610e01565b34801561057f57600080fd5b5061037d610e4f565b34801561059457600080fd5b5061037d6105a3366004612445565b610e85565b3480156105b457600080fd5b50610318610eb4565b3480156105c957600080fd5b506008546001600160a01b0316610345565b3480156105e757600080fd5b506103d5600f5481565b3480156105fd57600080fd5b50610318610f42565b34801561061257600080fd5b506103d567016345785d8a000081565b61037d610630366004612445565b610f51565b34801561064157600080fd5b5061037d610650366004612622565b6110c3565b34801561066157600080fd5b506103d5611159565b34801561067657600080fd5b5061037d610685366004612445565b611210565b34801561069657600080fd5b5061037d6106a5366004612655565b61123f565b3480156106b657600080fd5b506010546106c990610100900460ff1681565b6040516102fa91906126e6565b3480156106e257600080fd5b506103d560145481565b3480156106f857600080fd5b50610318610707366004612445565b611290565b34801561071857600080fd5b5061037d61072736600461270e565b6113f6565b61037d61073a36600461272f565b611449565b34801561074b57600080fd5b506103d5600d5481565b34801561076157600080fd5b506103d56706f05b59d3b2000081565b34801561077d57600080fd5b506103d561078c3660046125b3565b60136020526000908152604090205481565b3480156107aa57600080fd5b5061037d6107b93660046127ad565b61171c565b3480156107ca57600080fd5b506103d5611759565b3480156107df57600080fd5b506102ee6107ee3660046127c8565b6001600160a01b03918216600090815260076020908152604080832093909416825291909152205460ff1690565b34801561082857600080fd5b5061037d6108373660046127f2565b61178e565b34801561084857600080fd5b506103d5610a8c81565b34801561085e57600080fd5b5061037d61086d3660046125b3565b61185a565b61037d610880366004612445565b6118f5565b34801561089157600080fd5b506103d560125481565b3480156108a757600080fd5b506103d5612a3081565b60006001600160e01b031982166380ac58cd60e01b14806108e257506001600160e01b03198216635b5e139f60e01b145b806108fd57506301ffc9a760e01b6001600160e01b03198316145b92915050565b60606002805461091290612815565b80601f016020809104026020016040519081016040528092919081815260200182805461093e90612815565b801561098b5780601f106109605761010080835404028352916020019161098b565b820191906000526020600020905b81548152906001019060200180831161096e57829003601f168201915b5050505050905090565b60006109a082611a6a565b6109bd576040516333d1c03960e21b815260040160405180910390fd5b506000908152600660205260409020546001600160a01b031690565b6008546001600160a01b03163314610a0c5760405162461bcd60e51b8152600401610a0390612850565b60405180910390fd5b600e55565b6000610a1c82610def565b9050806001600160a01b0316836001600160a01b03161415610a515760405163250fdee360e21b815260040160405180910390fd5b336001600160a01b03821614801590610a715750610a6f81336107ee565b155b15610a8f576040516367d9dca160e11b815260040160405180910390fd5b610a9a838383611aa3565b505050565b6008546001600160a01b03163314610ac95760405162461bcd60e51b8152600401610a0390612850565b601455565b600154600054036000190190565b6008546001600160a01b03163314610b065760405162461bcd60e51b8152600401610a0390612850565b601255565b6008546001600160a01b03163314610b355760405162461bcd60e51b8152600401610a0390612850565b8051610b4890600b90602084019061230e565b5050565b610a9a838383611aff565b6008546001600160a01b03163314610b815760405162461bcd60e51b8152600401610a0390612850565b60026009541415610bd45760405162461bcd60e51b815260206004820152601f60248201527f5265656e7472616e637947756172643a207265656e7472616e742063616c6c006044820152606401610a03565b6002600955604051600090339047908381818185875af1925050503d8060008114610c1b576040519150601f19603f3d011682016040523d82523d6000602084013e610c20565b606091505b5050905080610c2e57600080fd5b506001600955565b610a9a8383836040518060200160405280600081525061123f565b60606000610c5e83610e01565b90506000816001600160401b03811115610c7a57610c7a6124a4565b604051908082528060200260200182016040528015610ca3578160200160208202803683370190505b509050600160005b8381108015610cbc5750600d548211155b15610d7957600082815260046020908152604091829020825160608101845290546001600160a01b0381168252600160a01b81046001600160401b031692820192909252600160e01b90910460ff161580159282018390529091610d355750866001600160a01b031681600001516001600160a01b0316145b15610d665782848381518110610d4d57610d4d612885565b602090810291909101015281610d62816128b1565b9250505b82610d70816128b1565b93505050610cab565b5090949350505050565b6008546001600160a01b03163314610dad5760405162461bcd60e51b8152600401610a0390612850565b600c55565b6008546001600160a01b03163314610ddc5760405162461bcd60e51b8152600401610a0390612850565b8051610b4890600a90602084019061230e565b6000610dfa82611d10565b5192915050565b60006001600160a01b038216610e2a576040516323d3ad8160e21b815260040160405180910390fd5b506001600160a01b03166000908152600560205260409020546001600160401b031690565b6008546001600160a01b03163314610e795760405162461bcd60e51b8152600401610a0390612850565b610e836000611e37565b565b6008546001600160a01b03163314610eaf5760405162461bcd60e51b8152600401610a0390612850565b601155565b600b8054610ec190612815565b80601f0160208091040260200160405190810160405280929190818152602001828054610eed90612815565b8015610f3a5780601f10610f0f57610100808354040283529160200191610f3a565b820191906000526020600020905b815481529060010190602001808311610f1d57829003601f168201915b505050505081565b60606003805461091290612815565b80600081118015610f645750600f548111155b610f805760405162461bcd60e51b8152600401610a03906128cc565b600e5481610f8d33610e01565b610f9791906128fa565b1115610fb55760405162461bcd60e51b8152600401610a0390612912565b600d5481610fc1610ace565b610fcb91906128fa565b1115610fe95760405162461bcd60e51b8152600401610a0390612949565b6002601054610100900460ff166003811115611007576110076126d0565b146110665760405162461bcd60e51b815260206004820152602960248201527f54686520636f6e747261637420646f6573206e6f7420696e205075626c696353604482015268616c6520737461676560b81b6064820152608401610a03565b81600c546110749190612977565b3410156110b95760405162461bcd60e51b8152602060048201526013602482015272496e73756666696369656e742066756e64732160681b6044820152606401610a03565b610b483383611e89565b6001600160a01b0382163314156110ed5760405163b06307db60e01b815260040160405180910390fd5b3360008181526007602090815260408083206001600160a01b03871680855290835292819020805460ff191686151590811790915590519081529192917f17307eab39ab6107e8899845ad3d59bd9653f200f220920489ca2b5937696c31910160405180910390a35050565b6014546000904290811015611177576706f05b59d3b2000091505090565b612a30601454826111889190612996565b1061119c5767016345785d8a000091505090565b6000610a8c601454836111af9190612996565b6111b991906129c3565b90506111c9610a8c612a306129c3565b6111e367016345785d8a00006706f05b59d3b20000612996565b6111ed91906129c3565b6111f79082612977565b611209906706f05b59d3b20000612996565b9250505090565b6008546001600160a01b0316331461123a5760405162461bcd60e51b8152600401610a0390612850565b600f55565b61124a848484611aff565b6001600160a01b0383163b1515801561126c575061126a84848484611ea3565b155b1561128a576040516368d2bf6b60e11b815260040160405180910390fd5b50505050565b606061129b82611a6a565b6112ff5760405162461bcd60e51b815260206004820152602f60248201527f4552433732314d657461646174613a2055524920717565727920666f72206e6f60448201526e3732bc34b9ba32b73a103a37b5b2b760891b6064820152608401610a03565b60105460009060ff1661139c57600b805461131990612815565b80601f016020809104026020016040519081016040528092919081815260200182805461134590612815565b80156113925780601f1061136757610100808354040283529160200191611392565b820191906000526020600020905b81548152906001019060200180831161137557829003601f168201915b50505050506113a4565b6113a4611f9b565b905060008151116113c457604051806020016040528060008152506113ef565b806113ce84611faa565b6040516020016113df9291906129d7565b6040516020818303038152906040525b9392505050565b6008546001600160a01b031633146114205760405162461bcd60e51b8152600401610a0390612850565b6010805482919061ff001916610100836003811115611441576114416126d0565b021790555050565b8260008111801561145c5750600f548111155b6114785760405162461bcd60e51b8152600401610a03906128cc565b600e548161148533610e01565b61148f91906128fa565b11156114ad5760405162461bcd60e51b8152600401610a0390612912565b600d54816114b9610ace565b6114c391906128fa565b11156114e15760405162461bcd60e51b8152600401610a0390612949565b6001601054610100900460ff1660038111156114ff576114ff6126d0565b1461155b5760405162461bcd60e51b815260206004820152602660248201527f54686520636f6e747261637420646f6573206e6f7420696e2050726573616c6560448201526520737461676560d01b6064820152608401610a03565b601254336000908152601360205260409020546115799086906128fa565b11156115d35760405162461bcd60e51b815260206004820152602360248201527f4d696e74206f766572206d61782077686974656c697374206d696e7420616d6f6044820152621d5b9d60ea1b6064820152608401610a03565b83600c546115e19190612977565b3410156116265760405162461bcd60e51b8152602060048201526013602482015272496e73756666696369656e742066756e64732160681b6044820152606401610a03565b6040516bffffffffffffffffffffffff193360601b1660208201526000906034016040516020818303038152906040528051906020012090506116a08484808060200260200160405190810160405280939291908181526020018383602002808284376000920191909152505060115491508490506120a7565b6116dd5760405162461bcd60e51b815260206004820152600e60248201526d496e76616c69642070726f6f662160901b6044820152606401610a03565b336000908152601360205260409020546116f89086906128fa565b336000818152601360205260409020919091556117159086611e89565b5050505050565b6008546001600160a01b031633146117465760405162461bcd60e51b8152600401610a0390612850565b6010805460ff1916911515919091179055565b611767610a8c612a306129c3565b61178167016345785d8a00006706f05b59d3b20000612996565b61178b91906129c3565b81565b816000811180156117a15750600f548111155b6117bd5760405162461bcd60e51b8152600401610a03906128cc565b600e54816117ca33610e01565b6117d491906128fa565b11156117f25760405162461bcd60e51b8152600401610a0390612912565b600d54816117fe610ace565b61180891906128fa565b11156118265760405162461bcd60e51b8152600401610a0390612949565b6008546001600160a01b031633146118505760405162461bcd60e51b8152600401610a0390612850565b610a9a8284611e89565b6008546001600160a01b031633146118845760405162461bcd60e51b8152600401610a0390612850565b6001600160a01b0381166118e95760405162461bcd60e51b815260206004820152602660248201527f4f776e61626c653a206e6577206f776e657220697320746865207a65726f206160448201526564647265737360d01b6064820152608401610a03565b6118f281611e37565b50565b806000811180156119085750600f548111155b6119245760405162461bcd60e51b8152600401610a03906128cc565b600e548161193133610e01565b61193b91906128fa565b11156119595760405162461bcd60e51b8152600401610a0390612912565b600d5481611965610ace565b61196f91906128fa565b111561198d5760405162461bcd60e51b8152600401610a0390612949565b6003601054610100900460ff1660038111156119ab576119ab6126d0565b14611a0c5760405162461bcd60e51b815260206004820152602b60248201527f54686520636f6e747261637420646f6573206e6f7420696e204475746368417560448201526a6374696f6e20737461676560a81b6064820152608401610a03565b601454421015611a575760405162461bcd60e51b8152602060048201526016602482015275105d58dd1a5bdb88191bd95cc81b9bdd081cdd185c9d60521b6044820152606401610a03565b81611a60611159565b6110749190612977565b600081600111158015611a7e575060005482105b80156108fd575050600090815260046020526040902054600160e01b900460ff161590565b60008281526006602052604080822080546001600160a01b0319166001600160a01b0387811691821790925591518593918516917f8c5be1e5ebec7d5bd14f71427d1e84f3dd0314c0f7b2291e5b200ac8c7c3b92591a4505050565b6000611b0a82611d10565b80519091506000906001600160a01b0316336001600160a01b03161480611b3857508151611b3890336107ee565b80611b53575033611b4884610995565b6001600160a01b0316145b905080611b7357604051632ce44b5f60e11b815260040160405180910390fd5b846001600160a01b031682600001516001600160a01b031614611ba85760405162a1148160e81b815260040160405180910390fd5b6001600160a01b038416611bcf57604051633a954ecd60e21b815260040160405180910390fd5b611bdf6000848460000151611aa3565b6001600160a01b038581166000908152600560209081526040808320805467ffffffffffffffff198082166001600160401b0392831660001901831617909255898616808652838620805493841693831660019081018416949094179055898652600490945282852080546001600160e01b031916909417600160a01b429092169190910217909255908601808352912054909116611cc957600054811015611cc957825160008281526004602090815260409091208054918601516001600160401b0316600160a01b026001600160e01b03199092166001600160a01b03909316929092171790555b5082846001600160a01b0316866001600160a01b03167fddf252ad1be2c89b69c2b068fc378daa952ba7f163c4a11628f55a4df523b3ef60405160405180910390a4611715565b60408051606081018252600080825260208201819052918101919091528180600111158015611d40575060005481105b15611e1e57600081815260046020908152604091829020825160608101845290546001600160a01b0381168252600160a01b81046001600160401b031692820192909252600160e01b90910460ff16151591810182905290611e1c5780516001600160a01b031615611db3579392505050565b5060001901600081815260046020908152604091829020825160608101845290546001600160a01b038116808352600160a01b82046001600160401b031693830193909352600160e01b900460ff1615159281019290925215611e17579392505050565b611db3565b505b604051636f96cda160e11b815260040160405180910390fd5b600880546001600160a01b038381166001600160a01b0319831681179093556040519116919082907f8be0079c531659141344cd1fd0a4f28419497f9722a3daafe3b4186f6b6457e090600090a35050565b610b488282604051806020016040528060008152506120bd565b604051630a85bd0160e11b81526000906001600160a01b0385169063150b7a0290611ed8903390899088908890600401612a06565b602060405180830381600087803b158015611ef257600080fd5b505af1925050508015611f22575060408051601f3d908101601f19168201909252611f1f91810190612a43565b60015b611f7d573d808015611f50576040519150601f19603f3d011682016040523d82523d6000602084013e611f55565b606091505b508051611f75576040516368d2bf6b60e11b815260040160405180910390fd5b805181602001fd5b6001600160e01b031916630a85bd0160e11b1490505b949350505050565b6060600a805461091290612815565b606081611fce5750506040805180820190915260018152600360fc1b602082015290565b8160005b8115611ff85780611fe2816128b1565b9150611ff19050600a836129c3565b9150611fd2565b6000816001600160401b03811115612012576120126124a4565b6040519080825280601f01601f19166020018201604052801561203c576020820181803683370190505b5090505b8415611f9357612051600183612996565b915061205e600a86612a60565b6120699060306128fa565b60f81b81838151811061207e5761207e612885565b60200101906001600160f81b031916908160001a9053506120a0600a866129c3565b9450612040565b6000826120b485846120ca565b14949350505050565b610a9a838383600161213e565b600081815b84518110156121365760008582815181106120ec576120ec612885565b602002602001015190508083116121125760008381526020829052604090209250612123565b600081815260208490526040902092505b508061212e816128b1565b9150506120cf565b509392505050565b6000546001600160a01b03851661216757604051622e076360e81b815260040160405180910390fd5b836121855760405163b562e8dd60e01b815260040160405180910390fd5b6001600160a01b038516600081815260056020908152604080832080546fffffffffffffffffffffffffffffffff1981166001600160401b038083168c0181169182176801000000000000000067ffffffffffffffff1990941690921783900481168c01811690920217909155858452600490925290912080546001600160e01b031916909217600160a01b42909216919091021790558080850183801561223657506001600160a01b0387163b15155b156122bf575b60405182906001600160a01b038916906000907fddf252ad1be2c89b69c2b068fc378daa952ba7f163c4a11628f55a4df523b3ef908290a46122876000888480600101955088611ea3565b6122a4576040516368d2bf6b60e11b815260040160405180910390fd5b8082141561223c5782600054146122ba57600080fd5b612305565b5b6040516001830192906001600160a01b038916906000907fddf252ad1be2c89b69c2b068fc378daa952ba7f163c4a11628f55a4df523b3ef908290a4808214156122c0575b50600055611715565b82805461231a90612815565b90600052602060002090601f01602090048101928261233c5760008555612382565b82601f1061235557805160ff1916838001178555612382565b82800160010185558215612382579182015b82811115612382578251825591602001919060010190612367565b5061238e929150612392565b5090565b5b8082111561238e5760008155600101612393565b6001600160e01b0319811681146118f257600080fd5b6000602082840312156123cf57600080fd5b81356113ef816123a7565b60005b838110156123f55781810151838201526020016123dd565b8381111561128a5750506000910152565b6000815180845261241e8160208601602086016123da565b601f01601f19169290920160200192915050565b6020815260006113ef6020830184612406565b60006020828403121561245757600080fd5b5035919050565b80356001600160a01b038116811461247557600080fd5b919050565b6000806040838503121561248d57600080fd5b6124968361245e565b946020939093013593505050565b634e487b7160e01b600052604160045260246000fd5b60006001600160401b03808411156124d4576124d46124a4565b604051601f8501601f19908116603f011681019082821181831017156124fc576124fc6124a4565b8160405280935085815286868601111561251557600080fd5b858560208301376000602087830101525050509392505050565b60006020828403121561254157600080fd5b81356001600160401b0381111561255757600080fd5b8201601f8101841361256857600080fd5b611f93848235602084016124ba565b60008060006060848603121561258c57600080fd5b6125958461245e565b92506125a36020850161245e565b9150604084013590509250925092565b6000602082840312156125c557600080fd5b6113ef8261245e565b6020808252825182820181905260009190848201906040850190845b81811015612606578351835292840192918401916001016125ea565b50909695505050505050565b8035801515811461247557600080fd5b6000806040838503121561263557600080fd5b61263e8361245e565b915061264c60208401612612565b90509250929050565b6000806000806080858703121561266b57600080fd5b6126748561245e565b93506126826020860161245e565b92506040850135915060608501356001600160401b038111156126a457600080fd5b8501601f810187136126b557600080fd5b6126c4878235602084016124ba565b91505092959194509250565b634e487b7160e01b600052602160045260246000fd5b602081016004831061270857634e487b7160e01b600052602160045260246000fd5b91905290565b60006020828403121561272057600080fd5b8135600481106113ef57600080fd5b60008060006040848603121561274457600080fd5b8335925060208401356001600160401b038082111561276257600080fd5b818601915086601f83011261277657600080fd5b81358181111561278557600080fd5b8760208260051b850101111561279a57600080fd5b6020830194508093505050509250925092565b6000602082840312156127bf57600080fd5b6113ef82612612565b600080604083850312156127db57600080fd5b6127e48361245e565b915061264c6020840161245e565b6000806040838503121561280557600080fd5b8235915061264c6020840161245e565b600181811c9082168061282957607f821691505b6020821081141561284a57634e487b7160e01b600052602260045260246000fd5b50919050565b6020808252818101527f4f776e61626c653a2063616c6c6572206973206e6f7420746865206f776e6572604082015260600190565b634e487b7160e01b600052603260045260246000fd5b634e487b7160e01b600052601160045260246000fd5b60006000198214156128c5576128c561289b565b5060010190565b602080825260149082015273496e76616c6964206d696e7420616d6f756e742160601b604082015260600190565b6000821982111561290d5761290d61289b565b500190565b6020808252601a908201527f4d696e74206f766572206d6178206d696e7420616d6f756e7421000000000000604082015260600190565b6020808252601490820152734d617820737570706c792065786365656465642160601b604082015260600190565b60008160001904831182151516156129915761299161289b565b500290565b6000828210156129a8576129a861289b565b500390565b634e487b7160e01b600052601260045260246000fd5b6000826129d2576129d26129ad565b500490565b600083516129e98184602088016123da565b8351908301906129fd8183602088016123da565b01949350505050565b6001600160a01b0385811682528416602082015260408101839052608060608201819052600090612a3990830184612406565b9695505050505050565b600060208284031215612a5557600080fd5b81516113ef816123a7565b600082612a6f57612a6f6129ad565b50069056fea264697066735822122079ab3d7781e49dc4baa0e1a22b7d735e5820d1321d02b983a4eaace57b0bd9c864736f6c63430008090033",
  "linkReferences": {},
  "deployedLinkReferences": {}
}