{
  "_format": "hh-sol-artifact-1",
  "contractName": "ToonSurvival",
  "sourceName": "contracts/ToonSurvival.sol",
  "abi": [
    {
      "inputs": [
        {
          "internalType": "string",
          "name": "_tokenName",
          "type": "string"
        },
        {
          "internalType": "string",
          "name": "_tokenSymbol",
          "type": "string"
        },
        {
          "internalType": "uint256",
          "name": "_cost",
          "type": "uint256"
        },
        {
          "internalType": "uint256",
          "name": "_maxSupply",
          "type": "uint256"
        },
        {
          "internalType": "uint256",
          "name": "_maxMintAmount",
          "type": "uint256"
        },
        {
          "internalType": "uint256",
          "name": "_maxMintAmountPerTx",
          "type": "uint256"
        },
        {
          "internalType": "string",
          "name": "_initBaseURI",
          "type": "string"
        },
        {
          "internalType": "string",
          "name": "_initHiddenBaseURI",
          "type": "string"
        }
      ],
      "stateMutability": "nonpayable",
      "type": "constructor"
    },
    {
      "inputs": [],
      "name": "ApprovalCallerNotOwnerNorApproved",
      "type": "error"
    },
    {
      "inputs": [],
      "name": "ApprovalQueryForNonexistentToken",
      "type": "error"
    },
    {
      "inputs": [],
      "name": "ApprovalToCurrentOwner",
      "type": "error"
    },
    {
      "inputs": [],
      "name": "ApproveToCaller",
      "type": "error"
    },
    {
      "inputs": [],
      "name": "BalanceQueryForZeroAddress",
      "type": "error"
    },
    {
      "inputs": [],
      "name": "MintToZeroAddress",
      "type": "error"
    },
    {
      "inputs": [],
      "name": "MintZeroQuantity",
      "type": "error"
    },
    {
      "inputs": [],
      "name": "OwnerQueryForNonexistentToken",
      "type": "error"
    },
    {
      "inputs": [],
      "name": "TransferCallerNotOwnerNorApproved",
      "type": "error"
    },
    {
      "inputs": [],
      "name": "TransferFromIncorrectOwner",
      "type": "error"
    },
    {
      "inputs": [],
      "name": "TransferToNonERC721ReceiverImplementer",
      "type": "error"
    },
    {
      "inputs": [],
      "name": "TransferToZeroAddress",
      "type": "error"
    },
    {
      "anonymous": false,
      "inputs": [
        {
          "indexed": true,
          "internalType": "address",
          "name": "owner",
          "type": "address"
        },
        {
          "indexed": true,
          "internalType": "address",
          "name": "approved",
          "type": "address"
        },
        {
          "indexed": true,
          "internalType": "uint256",
          "name": "tokenId",
          "type": "uint256"
        }
      ],
      "name": "Approval",
      "type": "event"
    },
    {
      "anonymous": false,
      "inputs": [
        {
          "indexed": true,
          "internalType": "address",
          "name": "owner",
          "type": "address"
        },
        {
          "indexed": true,
          "internalType": "address",
          "name": "operator",
          "type": "address"
        },
        {
          "indexed": false,
          "internalType": "bool",
          "name": "approved",
          "type": "bool"
        }
      ],
      "name": "ApprovalForAll",
      "type": "event"
    },
    {
      "anonymous": false,
      "inputs": [
        {
          "indexed": true,
          "internalType": "address",
          "name": "previousOwner",
          "type": "address"
        },
        {
          "indexed": true,
          "internalType": "address",
          "name": "newOwner",
          "type": "address"
        }
      ],
      "name": "OwnershipTransferred",
      "type": "event"
    },
    {
      "anonymous": false,
      "inputs": [
        {
          "indexed": true,
          "internalType": "address",
          "name": "from",
          "type": "address"
        },
        {
          "indexed": true,
          "internalType": "address",
          "name": "to",
          "type": "address"
        },
        {
          "indexed": true,
          "internalType": "uint256",
          "name": "tokenId",
          "type": "uint256"
        }
      ],
      "name": "Transfer",
      "type": "event"
    },
    {
      "inputs": [
        {
          "internalType": "address",
          "name": "to",
          "type": "address"
        },
        {
          "internalType": "uint256",
          "name": "tokenId",
          "type": "uint256"
        }
      ],
      "name": "approve",
      "outputs": [],
      "stateMutability": "nonpayable",
      "type": "function"
    },
    {
      "inputs": [
        {
          "internalType": "address",
          "name": "owner",
          "type": "address"
        }
      ],
      "name": "balanceOf",
      "outputs": [
        {
          "internalType": "uint256",
          "name": "",
          "type": "uint256"
        }
      ],
      "stateMutability": "view",
      "type": "function"
    },
    {
      "inputs": [],
      "name": "cost",
      "outputs": [
        {
          "internalType": "uint256",
          "name": "",
          "type": "uint256"
        }
      ],
      "stateMutability": "view",
      "type": "function"
    },
    {
      "inputs": [
        {
          "internalType": "uint256",
          "name": "tokenId",
          "type": "uint256"
        }
      ],
      "name": "getApproved",
      "outputs": [
        {
          "internalType": "address",
          "name": "",
          "type": "address"
        }
      ],
      "stateMutability": "view",
      "type": "function"
    },
    {
      "inputs": [],
      "name": "hiddenBaseURI",
      "outputs": [
        {
          "internalType": "string",
          "name": "",
          "type": "string"
        }
      ],
      "stateMutability": "view",
      "type": "function"
    },
    {
      "inputs": [
        {
          "internalType": "address",
          "name": "owner",
          "type": "address"
        },
        {
          "internalType": "address",
          "name": "operator",
          "type": "address"
        }
      ],
      "name": "isApprovedForAll",
      "outputs": [
        {
          "internalType": "bool",
          "name": "",
          "type": "bool"
        }
      ],
      "stateMutability": "view",
      "type": "function"
    },
    {
      "inputs": [],
      "name": "maxMintAmount",
      "outputs": [
        {
          "internalType": "uint256",
          "name": "",
          "type": "uint256"
        }
      ],
      "stateMutability": "view",
      "type": "function"
    },
    {
      "inputs": [],
      "name": "maxMintAmountPerTx",
      "outputs": [
        {
          "internalType": "uint256",
          "name": "",
          "type": "uint256"
        }
      ],
      "stateMutability": "view",
      "type": "function"
    },
    {
      "inputs": [],
      "name": "maxSupply",
      "outputs": [
        {
          "internalType": "uint256",
          "name": "",
          "type": "uint256"
        }
      ],
      "stateMutability": "view",
      "type": "function"
    },
    {
      "inputs": [],
      "name": "merkleRoot",
      "outputs": [
        {
          "internalType": "bytes32",
          "name": "",
          "type": "bytes32"
        }
      ],
      "stateMutability": "view",
      "type": "function"
    },
    {
      "inputs": [
        {
          "internalType": "uint256",
          "name": "_mintAmount",
          "type": "uint256"
        }
      ],
      "name": "mint",
      "outputs": [],
      "stateMutability": "payable",
      "type": "function"
    },
    {
      "inputs": [
        {
          "internalType": "uint256",
          "name": "_mintAmount",
          "type": "uint256"
        },
        {
          "internalType": "address",
          "name": "_receiver",
          "type": "address"
        }
      ],
      "name": "mintForAddress",
      "outputs": [],
      "stateMutability": "nonpayable",
      "type": "function"
    },
    {
      "inputs": [],
      "name": "name",
      "outputs": [
        {
          "internalType": "string",
          "name": "",
          "type": "string"
        }
      ],
      "stateMutability": "view",
      "type": "function"
    },
    {
      "inputs": [],
      "name": "owner",
      "outputs": [
        {
          "internalType": "address",
          "name": "",
          "type": "address"
        }
      ],
      "stateMutability": "view",
      "type": "function"
    },
    {
      "inputs": [
        {
          "internalType": "uint256",
          "name": "tokenId",
          "type": "uint256"
        }
      ],
      "name": "ownerOf",
      "outputs": [
        {
          "internalType": "address",
          "name": "",
          "type": "address"
        }
      ],
      "stateMutability": "view",
      "type": "function"
    },
    {
      "inputs": [],
      "name": "renounceOwnership",
      "outputs": [],
      "stateMutability": "nonpayable",
      "type": "function"
    },
    {
      "inputs": [],
      "name": "revealed",
      "outputs": [
        {
          "internalType": "bool",
          "name": "",
          "type": "bool"
        }
      ],
      "stateMutability": "view",
      "type": "function"
    },
    {
      "inputs": [
        {
          "internalType": "address",
          "name": "from",
          "type": "address"
        },
        {
          "internalType": "address",
          "name": "to",
          "type": "address"
        },
        {
          "internalType": "uint256",
          "name": "tokenId",
          "type": "uint256"
        }
      ],
      "name": "safeTransferFrom",
      "outputs": [],
      "stateMutability": "nonpayable",
      "type": "function"
    },
    {
      "inputs": [
        {
          "internalType": "address",
          "name": "from",
          "type": "address"
        },
        {
          "internalType": "address",
          "name": "to",
          "type": "address"
        },
        {
          "internalType": "uint256",
          "name": "tokenId",
          "type": "uint256"
        },
        {
          "internalType": "bytes",
          "name": "_data",
          "type": "bytes"
        }
      ],
      "name": "safeTransferFrom",
      "outputs": [],
      "stateMutability": "nonpayable",
      "type": "function"
    },
    {
      "inputs": [
        {
          "internalType": "address",
          "name": "operator",
          "type": "address"
        },
        {
          "internalType": "bool",
          "name": "approved",
          "type": "bool"
        }
      ],
      "name": "setApprovalForAll",
      "outputs": [],
      "stateMutability": "nonpayable",
      "type": "function"
    },
    {
      "inputs": [
        {
          "internalType": "string",
          "name": "_newBaseURI",
          "type": "string"
        }
      ],
      "name": "setBaseURI",
      "outputs": [],
      "stateMutability": "nonpayable",
      "type": "function"
    },
    {
      "inputs": [
        {
          "internalType": "uint256",
          "name": "_cost",
          "type": "uint256"
        }
      ],
      "name": "setCost",
      "outputs": [],
      "stateMutability": "nonpayable",
      "type": "function"
    },
    {
      "inputs": [
        {
          "internalType": "string",
          "name": "_newHiddenBaseURI",
          "type": "string"
        }
      ],
      "name": "setHiddenBaseURI",
      "outputs": [],
      "stateMutability": "nonpayable",
      "type": "function"
    },
    {
      "inputs": [
        {
          "internalType": "uint256",
          "name": "_maxMintAmount",
          "type": "uint256"
        }
      ],
      "name": "setMaxMintAmount",
      "outputs": [],
      "stateMutability": "nonpayable",
      "type": "function"
    },
    {
      "inputs": [
        {
          "internalType": "uint256",
          "name": "_maxMintAmountPerTx",
          "type": "uint256"
        }
      ],
      "name": "setMaxMintAmountPerTx",
      "outputs": [],
      "stateMutability": "nonpayable",
      "type": "function"
    },
    {
      "inputs": [
        {
          "internalType": "bytes32",
          "name": "_merkleRoot",
          "type": "bytes32"
        }
      ],
      "name": "setMerkleRoot",
      "outputs": [],
      "stateMutability": "nonpayable",
      "type": "function"
    },
    {
      "inputs": [
        {
          "internalType": "bool",
          "name": "_revealed",
          "type": "bool"
        }
      ],
      "name": "setRevealed",
      "outputs": [],
      "stateMutability": "nonpayable",
      "type": "function"
    },
    {
      "inputs": [
        {
          "internalType": "enum ToonSurvival.Stages",
          "name": "_stage",
          "type": "uint8"
        }
      ],
      "name": "setStage",
      "outputs": [],
      "stateMutability": "nonpayable",
      "type": "function"
    },
    {
      "inputs": [],
      "name": "stage",
      "outputs": [
        {
          "internalType": "enum ToonSurvival.Stages",
          "name": "",
          "type": "uint8"
        }
      ],
      "stateMutability": "view",
      "type": "function"
    },
    {
      "inputs": [
        {
          "internalType": "bytes4",
          "name": "interfaceId",
          "type": "bytes4"
        }
      ],
      "name": "supportsInterface",
      "outputs": [
        {
          "internalType": "bool",
          "name": "",
          "type": "bool"
        }
      ],
      "stateMutability": "view",
      "type": "function"
    },
    {
      "inputs": [],
      "name": "symbol",
      "outputs": [
        {
          "internalType": "string",
          "name": "",
          "type": "string"
        }
      ],
      "stateMutability": "view",
      "type": "function"
    },
    {
      "inputs": [
        {
          "internalType": "uint256",
          "name": "tokenId",
          "type": "uint256"
        }
      ],
      "name": "tokenURI",
      "outputs": [
        {
          "internalType": "string",
          "name": "",
          "type": "string"
        }
      ],
      "stateMutability": "view",
      "type": "function"
    },
    {
      "inputs": [],
      "name": "totalSupply",
      "outputs": [
        {
          "internalType": "uint256",
          "name": "",
          "type": "uint256"
        }
      ],
      "stateMutability": "view",
      "type": "function"
    },
    {
      "inputs": [
        {
          "internalType": "address",
          "name": "from",
          "type": "address"
        },
        {
          "internalType": "address",
          "name": "to",
          "type": "address"
        },
        {
          "internalType": "uint256",
          "name": "tokenId",
          "type": "uint256"
        }
      ],
      "name": "transferFrom",
      "outputs": [],
      "stateMutability": "nonpayable",
      "type": "function"
    },
    {
      "inputs": [
        {
          "internalType": "address",
          "name": "newOwner",
          "type": "address"
        }
      ],
      "name": "transferOwnership",
      "outputs": [],
      "stateMutability": "nonpayable",
      "type": "function"
    },
    {
      "inputs": [
        {
          "internalType": "address",
          "name": "_owner",
          "type": "address"
        }
      ],
      "name": "walletOfOwner",
      "outputs": [
        {
          "internalType": "uint256[]",
          "name": "",
          "type": "uint256[]"
        }
      ],
      "stateMutability": "view",
      "type": "function"
    },
    {
      "inputs": [
        {
          "internalType": "address",
          "name": "",
          "type": "address"
        }
      ],
      "name": "whitelistClaimed",
      "outputs": [
        {
          "internalType": "bool",
          "name": "",
          "type": "bool"
        }
      ],
      "stateMutability": "view",
      "type": "function"
    },
    {
      "inputs": [
        {
          "internalType": "uint256",
          "name": "_mintAmount",
          "type": "uint256"
        },
        {
          "internalType": "bytes32[]",
          "name": "_merkleProof",
          "type": "bytes32[]"
        }
      ],
      "name": "whitelistMint",
      "outputs": [],
      "stateMutability": "payable",
      "type": "function"
    },
    {
      "inputs": [],
      "name": "withdraw",
      "outputs": [],
      "stateMutability": "payable",
      "type": "function"
    }
  ],
  "bytecode": "0x6080604052600f805461ffff191690553480156200001c57600080fd5b5060405162002993380380620029938339810160408190526200003f9162000294565b8751889088906200005890600290602085019062000121565b5080516200006e90600390602084019062000121565b50506001600055506200008133620000cf565b600b869055600c859055600d849055600e8390558151620000aa90600990602085019062000121565b508051620000c090600a90602084019062000121565b505050505050505050620003b1565b600880546001600160a01b038381166001600160a01b0319831681179093556040519116919082907f8be0079c531659141344cd1fd0a4f28419497f9722a3daafe3b4186f6b6457e090600090a35050565b8280546200012f9062000374565b90600052602060002090601f0160209004810192826200015357600085556200019e565b82601f106200016e57805160ff19168380011785556200019e565b828001600101855582156200019e579182015b828111156200019e57825182559160200191906001019062000181565b50620001ac929150620001b0565b5090565b5b80821115620001ac5760008155600101620001b1565b634e487b7160e01b600052604160045260246000fd5b600082601f830112620001ef57600080fd5b81516001600160401b03808211156200020c576200020c620001c7565b604051601f8301601f19908116603f01168101908282118183101715620002375762000237620001c7565b816040528381526020925086838588010111156200025457600080fd5b600091505b8382101562000278578582018301518183018401529082019062000259565b838211156200028a5760008385830101525b9695505050505050565b600080600080600080600080610100898b031215620002b257600080fd5b88516001600160401b0380821115620002ca57600080fd5b620002d88c838d01620001dd565b995060208b0151915080821115620002ef57600080fd5b620002fd8c838d01620001dd565b985060408b0151975060608b0151965060808b0151955060a08b0151945060c08b01519150808211156200033057600080fd5b6200033e8c838d01620001dd565b935060e08b01519150808211156200035557600080fd5b50620003648b828c01620001dd565b9150509295985092959890939650565b600181811c908216806200038957607f821691505b60208210811415620003ab57634e487b7160e01b600052602260045260246000fd5b50919050565b6125d280620003c16000396000f3fe6080604052600436106102305760003560e01c8063715018a61161012e578063c040e6b8116100ab578063db4bec441161006f578063db4bec441461063e578063e0a808531461066e578063e985e9c51461068e578063efbd73f4146106d7578063f2fde38b146106f757600080fd5b8063c040e6b8146105a9578063c87b56dd146105d5578063ce3cd997146105f5578063d2cab05614610615578063d5abeb011461062857600080fd5b806395d89b41116100f257806395d89b4114610521578063a0712d6814610536578063a22cb46514610549578063b071401b14610569578063b88d4fde1461058957600080fd5b8063715018a6146104a35780637cb64759146104b85780638128f9ff146104d85780638da5cb5b146104ed57806394354fd01461050b57600080fd5b806323b872dd116101bc57806344a0d68a1161018057806344a0d68a14610409578063518302271461042957806355f804b3146104435780636352211e1461046357806370a082311461048357600080fd5b806323b872dd1461037e5780632eb4a7ab1461039e5780633ccfd60b146103b457806342842e0e146103bc578063438b6300146103dc57600080fd5b8063095ea7b311610203578063095ea7b3146102e657806313faede61461030657806318160ddd1461032a57806320ac685014610348578063239c70ae1461036857600080fd5b806301ffc9a71461023557806306fdde031461026a578063081812fc1461028c578063088a4ed0146102c4575b600080fd5b34801561024157600080fd5b50610255610250366004611ee5565b610717565b60405190151581526020015b60405180910390f35b34801561027657600080fd5b5061027f610769565b6040516102619190611f5a565b34801561029857600080fd5b506102ac6102a7366004611f6d565b6107fb565b6040516001600160a01b039091168152602001610261565b3480156102d057600080fd5b506102e46102df366004611f6d565b61083f565b005b3480156102f257600080fd5b506102e4610301366004611fa2565b610877565b34801561031257600080fd5b5061031c600b5481565b604051908152602001610261565b34801561033657600080fd5b5061031c600154600054036000190190565b34801561035457600080fd5b506102e4610363366004612057565b610905565b34801561037457600080fd5b5061031c600d5481565b34801561038a57600080fd5b506102e461039936600461209f565b610946565b3480156103aa57600080fd5b5061031c60105481565b6102e4610951565b3480156103c857600080fd5b506102e46103d736600461209f565b6109d3565b3480156103e857600080fd5b506103fc6103f73660046120db565b6109ee565b60405161026191906120f6565b34801561041557600080fd5b506102e4610424366004611f6d565b610b20565b34801561043557600080fd5b50600f546102559060ff1681565b34801561044f57600080fd5b506102e461045e366004612057565b610b4f565b34801561046f57600080fd5b506102ac61047e366004611f6d565b610b8c565b34801561048f57600080fd5b5061031c61049e3660046120db565b610b9e565b3480156104af57600080fd5b506102e4610bec565b3480156104c457600080fd5b506102e46104d3366004611f6d565b610c22565b3480156104e457600080fd5b5061027f610c51565b3480156104f957600080fd5b506008546001600160a01b03166102ac565b34801561051757600080fd5b5061031c600e5481565b34801561052d57600080fd5b5061027f610cdf565b6102e4610544366004611f6d565b610cee565b34801561055557600080fd5b506102e461056436600461214a565b610e69565b34801561057557600080fd5b506102e4610584366004611f6d565b610eff565b34801561059557600080fd5b506102e46105a436600461217d565b610f2e565b3480156105b557600080fd5b50600f546105c890610100900460ff1681565b604051610261919061220e565b3480156105e157600080fd5b5061027f6105f0366004611f6d565b610f7f565b34801561060157600080fd5b506102e4610610366004612236565b6110e5565b6102e4610623366004612257565b611138565b34801561063457600080fd5b5061031c600c5481565b34801561064a57600080fd5b506102556106593660046120db565b60116020526000908152604090205460ff1681565b34801561067a57600080fd5b506102e46106893660046122d5565b6113e8565b34801561069a57600080fd5b506102556106a93660046122f0565b6001600160a01b03918216600090815260076020908152604080832093909416825291909152205460ff1690565b3480156106e357600080fd5b506102e46106f236600461231a565b611425565b34801561070357600080fd5b506102e46107123660046120db565b6114fa565b60006001600160e01b031982166380ac58cd60e01b148061074857506001600160e01b03198216635b5e139f60e01b145b8061076357506301ffc9a760e01b6001600160e01b03198316145b92915050565b6060600280546107789061233d565b80601f01602080910402602001604051908101604052809291908181526020018280546107a49061233d565b80156107f15780601f106107c6576101008083540402835291602001916107f1565b820191906000526020600020905b8154815290600101906020018083116107d457829003601f168201915b5050505050905090565b600061080682611592565b610823576040516333d1c03960e21b815260040160405180910390fd5b506000908152600660205260409020546001600160a01b031690565b6008546001600160a01b031633146108725760405162461bcd60e51b815260040161086990612378565b60405180910390fd5b600d55565b600061088282610b8c565b9050806001600160a01b0316836001600160a01b031614156108b75760405163250fdee360e21b815260040160405180910390fd5b336001600160a01b038216148015906108d757506108d581336106a9565b155b156108f5576040516367d9dca160e11b815260040160405180910390fd5b6109008383836115cb565b505050565b6008546001600160a01b0316331461092f5760405162461bcd60e51b815260040161086990612378565b805161094290600a906020840190611e36565b5050565b610900838383611627565b6008546001600160a01b0316331461097b5760405162461bcd60e51b815260040161086990612378565b604051600090339047908381818185875af1925050503d80600081146109bd576040519150601f19603f3d011682016040523d82523d6000602084013e6109c2565b606091505b50509050806109d057600080fd5b50565b61090083838360405180602001604052806000815250610f2e565b606060006109fb83610b9e565b90506000816001600160401b03811115610a1757610a17611fcc565b604051908082528060200260200182016040528015610a40578160200160208202803683370190505b509050600160005b8381108015610a595750600c548211155b15610b1657600082815260046020908152604091829020825160608101845290546001600160a01b0381168252600160a01b81046001600160401b031692820192909252600160e01b90910460ff161580159282018390529091610ad25750866001600160a01b031681600001516001600160a01b0316145b15610b035782848381518110610aea57610aea6123ad565b602090810291909101015281610aff816123d9565b9250505b82610b0d816123d9565b93505050610a48565b5090949350505050565b6008546001600160a01b03163314610b4a5760405162461bcd60e51b815260040161086990612378565b600b55565b6008546001600160a01b03163314610b795760405162461bcd60e51b815260040161086990612378565b8051610942906009906020840190611e36565b6000610b9782611838565b5192915050565b60006001600160a01b038216610bc7576040516323d3ad8160e21b815260040160405180910390fd5b506001600160a01b03166000908152600560205260409020546001600160401b031690565b6008546001600160a01b03163314610c165760405162461bcd60e51b815260040161086990612378565b610c20600061195f565b565b6008546001600160a01b03163314610c4c5760405162461bcd60e51b815260040161086990612378565b601055565b600a8054610c5e9061233d565b80601f0160208091040260200160405190810160405280929190818152602001828054610c8a9061233d565b8015610cd75780601f10610cac57610100808354040283529160200191610cd7565b820191906000526020600020905b815481529060010190602001808311610cba57829003601f168201915b505050505081565b6060600380546107789061233d565b80600081118015610d015750600e548111155b610d1d5760405162461bcd60e51b8152600401610869906123f4565b600d5481610d2a33610b9e565b610d349190612422565b1115610d525760405162461bcd60e51b81526004016108699061243a565b600c5481610d67600154600054036000190190565b610d719190612422565b1115610d8f5760405162461bcd60e51b815260040161086990612471565b6002600f54610100900460ff166002811115610dad57610dad6121f8565b14610e0c5760405162461bcd60e51b815260206004820152602960248201527f54686520636f6e747261637420646f6573206e6f7420696e205075626c696353604482015268616c6520737461676560b81b6064820152608401610869565b81600b54610e1a919061249f565b341015610e5f5760405162461bcd60e51b8152602060048201526013602482015272496e73756666696369656e742066756e64732160681b6044820152606401610869565b61094233836119b1565b6001600160a01b038216331415610e935760405163b06307db60e01b815260040160405180910390fd5b3360008181526007602090815260408083206001600160a01b03871680855290835292819020805460ff191686151590811790915590519081529192917f17307eab39ab6107e8899845ad3d59bd9653f200f220920489ca2b5937696c31910160405180910390a35050565b6008546001600160a01b03163314610f295760405162461bcd60e51b815260040161086990612378565b600e55565b610f39848484611627565b6001600160a01b0383163b15158015610f5b5750610f59848484846119cb565b155b15610f79576040516368d2bf6b60e11b815260040160405180910390fd5b50505050565b6060610f8a82611592565b610fee5760405162461bcd60e51b815260206004820152602f60248201527f4552433732314d657461646174613a2055524920717565727920666f72206e6f60448201526e3732bc34b9ba32b73a103a37b5b2b760891b6064820152608401610869565b600f5460009060ff1661108b57600a80546110089061233d565b80601f01602080910402602001604051908101604052809291908181526020018280546110349061233d565b80156110815780601f1061105657610100808354040283529160200191611081565b820191906000526020600020905b81548152906001019060200180831161106457829003601f168201915b5050505050611093565b611093611ac3565b905060008151116110b357604051806020016040528060008152506110de565b806110bd84611ad2565b6040516020016110ce9291906124be565b6040516020818303038152906040525b9392505050565b6008546001600160a01b0316331461110f5760405162461bcd60e51b815260040161086990612378565b600f805482919061ff001916610100836002811115611130576111306121f8565b021790555050565b8260008111801561114b5750600e548111155b6111675760405162461bcd60e51b8152600401610869906123f4565b600d548161117433610b9e565b61117e9190612422565b111561119c5760405162461bcd60e51b81526004016108699061243a565b600c54816111b1600154600054036000190190565b6111bb9190612422565b11156111d95760405162461bcd60e51b815260040161086990612471565b6001600f54610100900460ff1660028111156111f7576111f76121f8565b146112535760405162461bcd60e51b815260206004820152602660248201527f54686520636f6e747261637420646f6573206e6f7420696e2050726573616c6560448201526520737461676560d01b6064820152608401610869565b3360009081526011602052604090205460ff16156112b35760405162461bcd60e51b815260206004820152601860248201527f4164647265737320616c726561647920636c61696d65642100000000000000006044820152606401610869565b83600b546112c1919061249f565b3410156113065760405162461bcd60e51b8152602060048201526013602482015272496e73756666696369656e742066756e64732160681b6044820152606401610869565b6040516bffffffffffffffffffffffff193360601b166020820152600090603401604051602081830303815290604052805190602001209050611380848480806020026020016040519081016040528093929190818152602001838360200280828437600092019190915250506010549150849050611bcf565b6113bd5760405162461bcd60e51b815260206004820152600e60248201526d496e76616c69642070726f6f662160901b6044820152606401610869565b336000818152601160205260409020805460ff191660011790556113e190866119b1565b5050505050565b6008546001600160a01b031633146114125760405162461bcd60e51b815260040161086990612378565b600f805460ff1916911515919091179055565b816000811180156114385750600e548111155b6114545760405162461bcd60e51b8152600401610869906123f4565b600d548161146133610b9e565b61146b9190612422565b11156114895760405162461bcd60e51b81526004016108699061243a565b600c548161149e600154600054036000190190565b6114a89190612422565b11156114c65760405162461bcd60e51b815260040161086990612471565b6008546001600160a01b031633146114f05760405162461bcd60e51b815260040161086990612378565b61090082846119b1565b6008546001600160a01b031633146115245760405162461bcd60e51b815260040161086990612378565b6001600160a01b0381166115895760405162461bcd60e51b815260206004820152602660248201527f4f776e61626c653a206e6577206f776e657220697320746865207a65726f206160448201526564647265737360d01b6064820152608401610869565b6109d08161195f565b6000816001111580156115a6575060005482105b8015610763575050600090815260046020526040902054600160e01b900460ff161590565b60008281526006602052604080822080546001600160a01b0319166001600160a01b0387811691821790925591518593918516917f8c5be1e5ebec7d5bd14f71427d1e84f3dd0314c0f7b2291e5b200ac8c7c3b92591a4505050565b600061163282611838565b80519091506000906001600160a01b0316336001600160a01b031614806116605750815161166090336106a9565b8061167b575033611670846107fb565b6001600160a01b0316145b90508061169b57604051632ce44b5f60e11b815260040160405180910390fd5b846001600160a01b031682600001516001600160a01b0316146116d05760405162a1148160e81b815260040160405180910390fd5b6001600160a01b0384166116f757604051633a954ecd60e21b815260040160405180910390fd5b61170760008484600001516115cb565b6001600160a01b038581166000908152600560209081526040808320805467ffffffffffffffff198082166001600160401b0392831660001901831617909255898616808652838620805493841693831660019081018416949094179055898652600490945282852080546001600160e01b031916909417600160a01b4290921691909102179092559086018083529120549091166117f1576000548110156117f157825160008281526004602090815260409091208054918601516001600160401b0316600160a01b026001600160e01b03199092166001600160a01b03909316929092171790555b5082846001600160a01b0316866001600160a01b03167fddf252ad1be2c89b69c2b068fc378daa952ba7f163c4a11628f55a4df523b3ef60405160405180910390a46113e1565b60408051606081018252600080825260208201819052918101919091528180600111158015611868575060005481105b1561194657600081815260046020908152604091829020825160608101845290546001600160a01b0381168252600160a01b81046001600160401b031692820192909252600160e01b90910460ff161515918101829052906119445780516001600160a01b0316156118db579392505050565b5060001901600081815260046020908152604091829020825160608101845290546001600160a01b038116808352600160a01b82046001600160401b031693830193909352600160e01b900460ff161515928101929092521561193f579392505050565b6118db565b505b604051636f96cda160e11b815260040160405180910390fd5b600880546001600160a01b038381166001600160a01b0319831681179093556040519116919082907f8be0079c531659141344cd1fd0a4f28419497f9722a3daafe3b4186f6b6457e090600090a35050565b610942828260405180602001604052806000815250611be5565b604051630a85bd0160e11b81526000906001600160a01b0385169063150b7a0290611a009033908990889088906004016124ed565b602060405180830381600087803b158015611a1a57600080fd5b505af1925050508015611a4a575060408051601f3d908101601f19168201909252611a479181019061252a565b60015b611aa5573d808015611a78576040519150601f19603f3d011682016040523d82523d6000602084013e611a7d565b606091505b508051611a9d576040516368d2bf6b60e11b815260040160405180910390fd5b805181602001fd5b6001600160e01b031916630a85bd0160e11b1490505b949350505050565b6060600980546107789061233d565b606081611af65750506040805180820190915260018152600360fc1b602082015290565b8160005b8115611b205780611b0a816123d9565b9150611b199050600a8361255d565b9150611afa565b6000816001600160401b03811115611b3a57611b3a611fcc565b6040519080825280601f01601f191660200182016040528015611b64576020820181803683370190505b5090505b8415611abb57611b79600183612571565b9150611b86600a86612588565b611b91906030612422565b60f81b818381518110611ba657611ba66123ad565b60200101906001600160f81b031916908160001a905350611bc8600a8661255d565b9450611b68565b600082611bdc8584611bf2565b14949350505050565b6109008383836001611c66565b600081815b8451811015611c5e576000858281518110611c1457611c146123ad565b60200260200101519050808311611c3a5760008381526020829052604090209250611c4b565b600081815260208490526040902092505b5080611c56816123d9565b915050611bf7565b509392505050565b6000546001600160a01b038516611c8f57604051622e076360e81b815260040160405180910390fd5b83611cad5760405163b562e8dd60e01b815260040160405180910390fd5b6001600160a01b038516600081815260056020908152604080832080546fffffffffffffffffffffffffffffffff1981166001600160401b038083168c0181169182176801000000000000000067ffffffffffffffff1990941690921783900481168c01811690920217909155858452600490925290912080546001600160e01b031916909217600160a01b429092169190910217905580808501838015611d5e57506001600160a01b0387163b15155b15611de7575b60405182906001600160a01b038916906000907fddf252ad1be2c89b69c2b068fc378daa952ba7f163c4a11628f55a4df523b3ef908290a4611daf60008884806001019550886119cb565b611dcc576040516368d2bf6b60e11b815260040160405180910390fd5b80821415611d64578260005414611de257600080fd5b611e2d565b5b6040516001830192906001600160a01b038916906000907fddf252ad1be2c89b69c2b068fc378daa952ba7f163c4a11628f55a4df523b3ef908290a480821415611de8575b506000556113e1565b828054611e429061233d565b90600052602060002090601f016020900481019282611e645760008555611eaa565b82601f10611e7d57805160ff1916838001178555611eaa565b82800160010185558215611eaa579182015b82811115611eaa578251825591602001919060010190611e8f565b50611eb6929150611eba565b5090565b5b80821115611eb65760008155600101611ebb565b6001600160e01b0319811681146109d057600080fd5b600060208284031215611ef757600080fd5b81356110de81611ecf565b60005b83811015611f1d578181015183820152602001611f05565b83811115610f795750506000910152565b60008151808452611f46816020860160208601611f02565b601f01601f19169290920160200192915050565b6020815260006110de6020830184611f2e565b600060208284031215611f7f57600080fd5b5035919050565b80356001600160a01b0381168114611f9d57600080fd5b919050565b60008060408385031215611fb557600080fd5b611fbe83611f86565b946020939093013593505050565b634e487b7160e01b600052604160045260246000fd5b60006001600160401b0380841115611ffc57611ffc611fcc565b604051601f8501601f19908116603f0116810190828211818310171561202457612024611fcc565b8160405280935085815286868601111561203d57600080fd5b858560208301376000602087830101525050509392505050565b60006020828403121561206957600080fd5b81356001600160401b0381111561207f57600080fd5b8201601f8101841361209057600080fd5b611abb84823560208401611fe2565b6000806000606084860312156120b457600080fd5b6120bd84611f86565b92506120cb60208501611f86565b9150604084013590509250925092565b6000602082840312156120ed57600080fd5b6110de82611f86565b6020808252825182820181905260009190848201906040850190845b8181101561212e57835183529284019291840191600101612112565b50909695505050505050565b80358015158114611f9d57600080fd5b6000806040838503121561215d57600080fd5b61216683611f86565b91506121746020840161213a565b90509250929050565b6000806000806080858703121561219357600080fd5b61219c85611f86565b93506121aa60208601611f86565b92506040850135915060608501356001600160401b038111156121cc57600080fd5b8501601f810187136121dd57600080fd5b6121ec87823560208401611fe2565b91505092959194509250565b634e487b7160e01b600052602160045260246000fd5b602081016003831061223057634e487b7160e01b600052602160045260246000fd5b91905290565b60006020828403121561224857600080fd5b8135600381106110de57600080fd5b60008060006040848603121561226c57600080fd5b8335925060208401356001600160401b038082111561228a57600080fd5b818601915086601f83011261229e57600080fd5b8135818111156122ad57600080fd5b8760208260051b85010111156122c257600080fd5b6020830194508093505050509250925092565b6000602082840312156122e757600080fd5b6110de8261213a565b6000806040838503121561230357600080fd5b61230c83611f86565b915061217460208401611f86565b6000806040838503121561232d57600080fd5b8235915061217460208401611f86565b600181811c9082168061235157607f821691505b6020821081141561237257634e487b7160e01b600052602260045260246000fd5b50919050565b6020808252818101527f4f776e61626c653a2063616c6c6572206973206e6f7420746865206f776e6572604082015260600190565b634e487b7160e01b600052603260045260246000fd5b634e487b7160e01b600052601160045260246000fd5b60006000198214156123ed576123ed6123c3565b5060010190565b602080825260149082015273496e76616c6964206d696e7420616d6f756e742160601b604082015260600190565b60008219821115612435576124356123c3565b500190565b6020808252601a908201527f4d696e74206f766572206d6178206d696e7420616d6f756e7421000000000000604082015260600190565b6020808252601490820152734d617820737570706c792065786365656465642160601b604082015260600190565b60008160001904831182151516156124b9576124b96123c3565b500290565b600083516124d0818460208801611f02565b8351908301906124e4818360208801611f02565b01949350505050565b6001600160a01b038581168252841660208201526040810183905260806060820181905260009061252090830184611f2e565b9695505050505050565b60006020828403121561253c57600080fd5b81516110de81611ecf565b634e487b7160e01b600052601260045260246000fd5b60008261256c5761256c612547565b500490565b600082821015612583576125836123c3565b500390565b60008261259757612597612547565b50069056fea264697066735822122044cb52912f895860eff2d3e72140593ccb7a0e86ed037a04a72e5c6b8906362e64736f6c63430008090033",
  "linkReferences": {},
  "deployedLinkReferences": {}
}